S01000004C434420436F64652E73726563A6
S11300000C942D010C944A010C944A010C944A015D
S11300100C944A010C944A010C944A010C944A0130
S11300200C944A010C944A010C944A010C944A0120
S11300300C944A010C944A010C944A010C944A0110
S11300400C944A010C944A010C944A010C944A0100
S11300500C944A010C944A010C944A010C944A01F0
S11300600C944A010C944A0100000000008181189C
S113007081810007000700147F147F14242A7F2A3B
S11300801223130864623649552250000503000008
S1130090001C2241000041221C0014083E081408E0
S11300A0083E0808005030000008080808080060EE
S11300B060000020100804023E5149453E00427F82
S11300C0400042615149462141454B311814127F89
S11300D01027454545393C4A494930017109050312
S11300E03649494936064949291E0036360000007A
S11300F0563600000814224100141414141400414C
S11301002214080201510906324979413E7E111137
S1130110117E7F494949363E414141227F41412276
S11301201C7F494949417F090909013E4149497AEE
S11301307F0808087F00417F41002040413F017F44
S1130140081422417F404040407F020C027F7F041C
S113015008107F3E4141413E7F090909063E415155
S1130160215E7F09192946464949493101017F0128
S1130170013F4040403F1F2040201F3F4038403F48
S11301806314081463070870080761514945430064
S11301907F41410002040810200041417F00040215
S11301A00102044040404040000102040020545435
S11301B054787F48444438384444442038444448BC
S11301C07F3854545418087E0901020C5252523E8E
S11301D07F0804047800447D40002040443D007FB3
S11301E01028440000417F40007C041804787C08F7
S11301F004047838444444387C141414080814144F
S1130200147C7C080404084854545420043F44409B
S1130210203C4040207C1C2040201C3C4030403C82
S113022044281028440C5050503C4464544C44001E
S11302300836410000007F00000041360800100825
S113024008100800000000000500960100C8110114
S11302500A3A05010036A000C82911241FBECFEFB9
S1130260D8E0DEBFCDBF11E0A0E0B1E0E6EFFDE0F5
S113027002C005900D92A032B107D9F721E0A0E2A7
S1130280B1E001C01D92A432B207E1F70E948B06CF
S11302900C94F9060C940000FC01A281B3814C91EA
S11302A021E030E0C901048002C0880F991F0A943C
S11302B0E2F7842B8C93A081B1814C91C901048015
S11302C002C0880F991F0A94E2F7842B8C938FE461
S11302D093EC0197F1F700C00000A281B3819C91D7
S11302E0A901048002C0440F551F0A94E2F7842F29
S11302F0809589238C938FE493EC0197F1F700C0E8
S11303000000A281B3818C91048002C0220F331FAC
S11303100A94E2F7282B2C93089584B1806284B95F
S113032084B1886084B98CB580648CBD8CB58061DF
S11303308CBD8DB581608DBD0895CF93DF93FC0195
S1130340C081D181A881B9814C9121E030E0C901FB
S11303500C8002C0880F991F0A94E2F7842B8C93B7
S1130360C281D381A881B9814C91C9010C8002C09A
S1130370880F991F0A94E2F7842B8C93C481D5814A
S1130380A881B9814C91C9010C8002C0880F991FC2
S11303900A94E2F7842B8C93C081D181AA81BB811A
S11303A04C91C9010C8002C0880F991F0A94E2F78E
S11303B0842B8C93A281B3811296ED91FC911397B7
S11303C0808114960C9002C0220F331F0A94E2F726
S11303D0282B2083DF91CF910895CF93DF93FC01E5
S11303E0C081D181AA81BB819C9121E030E0A90127
S11303F00C8002C0440F551F0A94E2F7842F8095A5
S113040089238C93C481D581AA81BB818C910C8072
S113041002C0220F331F0A94E2F7209528232C935D
S11304206EBD0DB407FEFDCFA081B1811296ED9192
S1130430FC911397208181E090E014960C9002C007
S1130440880F991F0A94E2F7822B80838EB5DF917F
S1130450CF910895CF93DF93FC01C081D181AA810C
S1130460BB819C9121E030E0A9010C8002C0440FC3
S1130470551F0A94E2F7842F809589238C93C481B5
S1130480D581AA81BB818C910C8002C0220F331FBD
S11304900A94E2F7282B2C936EBD0DB407FEFDCF12
S11304A0A081B1811296ED91FC911397208181E096
S11304B090E014960C9002C0880F991F0A94E2F7FA
S11304C0822B80838EB5DF91CF910895CF93DF93F4
S11304D0FC01C081D181AA81BB819C9121E030E0E3
S11304E0A9010C8002C0440F551F0A94E2F7842F1F
S11304F0809589238C93C481D581AA81BB818C91F9
S11305000C8002C0220F331F0A94E2F7282B2C938D
S11305107EBD0DB407FEFDCF6EBD0DB407FEFDCF4D
S1130520A081B1811296ED91FC911397208181E015
S113053090E014960C9002C0880F991F0A94E2F779
S1130540822B80838EB5DF91CF910895EF92FF9235
S11305500F931F93CF93DF93461738F1403A38F542
S1130560021738F10E3638F5122FC42FD62F7C011E
S11305706AE20E94ED016D2F70E0C7010E946602DD
S11305806C2F70E0C7010E9466026BE2C7010E94F3
S1130590ED01612F70E0C7010E946602602F70E0D8
S11305A0C7010E94660280E007C081E005C081E0C7
S11305B003C081E001C081E0DF91CF911F910F91D1
S11305C0FF90EF900895CF92DF92EF92FF920F93F6
S11305D01F93CF93DF937C016B01EA016CE20E94CD
S11305E0ED0105C0B601C7010E946602E8018E0153
S11305F001501109CD2BB1F7DF91CF911F910F91CC
S1130600FF90EF90DF90CF900895EF92FF920F93B9
S1130610CF93DF93EC017901042F242F462F0E94FE
S1130620A60241E050E0B701CE010E94E302DF914F
S1130630CF910F91FF90EF900895EF92FF920F9357
S1130640CF93DF93EC017B010DE620E04FE960E0FE
S11306500E94A60240EC54E4B701CE010E94E302DA
S1130660DF91CF910F91FF90EF9008956F927F9259
S11306708F929F92AF92BF92CF92DF92EF92FF92AE
S11306800F931F93CF93DF938C01D62E7A012223ED
S113069069F13BC08D2D90E08097FC01EE0FFF1FA8
S11306A0EE0FFF1FE80FF91FED0FF11DE859FF4F83
S11306B0C49088E015C08C2D90E00C2E02C0959556
S11306C087950A94E2F780FF0AC0409122014C0FFB
S11306D0609120016D0F9701C8010E9405038C2FC2
S11306E0CFEFC80F8111E7CF8D2F01C085E0DFEF79
S11306F0D80F8111CFCF80912001909121010696CE
S11307009093210180932001CAC0203809F056C07B
S113071045C08D2D90E08097FC01EE0FFF1FEE0F7A
S1130720FF1FE80FF91FEC0DF11DE859FF4FD4919D
S113073088E02EC08D2F90E00C2E02C095958795F1
S11307400A94E2F780FF23C00F2EF2E28F2EF1E02D
S11307509F2EF02DF40140817C2E770C470D0F2E37
S1130760F0E2AF2EF1E0BF2EF02DF50160816C0DAB
S11307709701C8010E940503F4014081470D4F5FB2
S1130780F50160816C0D9701C8010E9405038C2F4F
S1130790CFEFC80F8111CECF8C2D01C085E0CC24C2
S11307A0CA94C80E8111B5CF809120019091210186
S11307B00696909321018093200171C0213809F09D
S11307C06EC05EC08D2D90E08097FC01EE0FFF1F80
S11307D0EE0FFF1FE80FF91FE70DF11DE859FF4F5A
S11307E0D49188E047C08D2F90E00C2E02C09595DF
S11307F087950A94E2F780FF3CC00F2EF2E28F2E19
S1130800F1E09F2EF02DF40140816C2E660C460D14
S11308100F2EF0E2AF2EF1E0BF2EF02DF501608136
S1130820C72CCC0C6C0D9701C8010E940503F40180
S11308304081460D4F5FF50160816C0D9701C80141
S11308400E940503F4014081460DF50160816C0DA1
S11308506F5F9701C8010E940503F4014081460DB2
S11308604F5FF50160816C0D6F5F9701C8010E94B5
S113087005038C2FCFEFC80F8111B5CF872D01C091
S113088085E077247A94780E81119CCF80912001A1
S1130890909121010B96909321018093200180E097
S11308A0DF91CF911F910F91FF90EF90DF90CF9048
S11308B0BF90AF909F908F907F906F900895813AF2
S11308C010F06F36E8F4813A78F06F3668F470E02F
S11308D0709323016093220182E090E090932101C0
S11308E08093200180E0089570E070932301609369
S11308F0220190E0909321018093200180E00895EB
S113090081E00895813A10F0461788F0813A88F022
S1130910461788F070E0709323016093220182E00F
S113092090E0909321018093200180E0089581E07C
S1130930089580E0089580E008959F92AF92BF9259
S1130940CF92DF92EF92FF920F931F93CF93DF9397
S11309506C015B017A01922E00E010E01CC08091D2
S11309602001992D9F70890F992D92959F70985F02
S113097060912201690F4EE6491B292D8B5F0E946D
S11309808204811108C00F5F1F4F292DA7016881C0
S1130990C6010E943603E501C00FD11F8881811171
S11309A0DECFDF91CF911F910F91FF90EF90DF90F9
S11309B0CF90BF90AF909F900895BF92CF92DF9257
S11309C0EF92FF920F931F93CF93DF936C01B62E98
S11309D0D42F122FC02F461710F4B42ED62FC117C0
S11309E018F4812F1C2FC82F0C2F212F4D2F6B2D66
S11309F0C6010E94A6022D2F30E02B1931092F5F6A
S1130A003F4F8C2F90E0811B91090196289FA001F4
S1130A10299F500D389F500D1124B701C6010E9423
S1130A20E302DF91CF911F910F91FF90EF90DF9040
S1130A30CF90BF90089507C0E9EFF0E03197F1F748
S1130A4000C00000892F9FEF980F8111F5CF089502
S1130A50AF92BF92CF92DF92EF92FF920F931F93C8
S1130A60CF93DF936C01EB012196FB01649120C0CD
S1130A70CE010196FE011491FC01B490319664916B
S1130A802396C6010E94ED010BC07E01FFEFEF1A11
S1130A90FF0AFE016491C6010E942A02102FE70199
S1130AA00FEF010F1111F1CF8B2D0E941B056A2D41
S1130AB0AA24AA94A60E6111DBCFDF91CF911F91D6
S1130AC00F91FF90EF90DF90CF90BF90AF9008957B
S1130AD0CF93DF93EC010E949D010E948D018E81D2
S1130AE09F810E944C0168E472E0CE010E942805B7
S1130AF0DF91CF9108953F924F925F926F927F92D0
S1130B008F929F92AF92BF92CF92DF92EF92FF9219
S1130B100F931F93CF93DF936C01C62FD42F0F2E07
S1130B20FDEF9F2EF02D940E1BEF140F0F2EFDEFF3
S1130B305F2EF02D560E0F2EFBEF3F2EF02D360EAE
S1130B407901092D212F452D632D0E94DD040F2EDF
S1130B50F3E04F2EF02D4C0E0F2EF5E08F2EF02DDE
S1130B608C0E212F442D682DC6010E94DD0415E052
S1130B701D0F0F2EF3E09F2EF02D9D0E4AEF4C0F0C
S1130B8069EF6C0F012F292DC6010E94DD040F2E81
S1130B90F6E06F2EF02D6D0E6894772472F87D0EBA
S1130BA04CEF4C0F062D272D632DC6010E94DD044A
S1130BB007E00D0F212F442D652DC6010E94DD0491
S1130BC064E06C0F062D272D482DC6010E94DD041C
S1130BD047E04C0F66E06C0F012F292DC6010E94DF
S1130BE0DD04DF91CF911F910F91FF90EF90DF9083
S1130BF0CF90BF90AF909F908F907F906F905F90B9
S1130C004F903F9008953F924F925F926F927F92E0
S1130C108F929F92AF92BF92CF92DF92EF92FF9208
S1130C200F931F93CF93DF936C01C62FD42F0F2EF6
S1130C30FDEF9F2EF02D940E1BEF140F0F2EFDEFE2
S1130C405F2EF02D560E0F2EFBEF3F2EF02D360E9D
S1130C507901092D212F452D632D0E94DD040F2ECE
S1130C60F3E04F2EF02D4C0E0F2EF5E08F2EF02DCD
S1130C708C0E212F442D682DC6010E94DD040F2EF9
S1130C80F7E09F2EF02D9D0E15E01D0F4AEF4C0F3F
S1130C9069EF6C0F092D212FC6010E94DD040F2E70
S1130CA0F6E06F2EF02D6D0E6894772472F87D0EA9
S1130CB04CEF4C0F062D272D632DC6010E94DD0439
S1130CC023E02D0F012F442D652DC6010E94DD0464
S1130CD064E06C0F062D272D482DC6010E94DD040B
S1130CE047E04C0F66E06C0F092D212FC6010E94CE
S1130CF0DD04DF91CF911F910F91FF90EF90DF9072
S1130D00CF90BF90AF909F908F907F906F905F90A7
S1130D104F903F900895CF93DF93CDB7DEB76C9794
S1130D200FB6F894DEBF0FBECDBF25E0E0E0F1E0E2
S1130D30CE010196DC0101900D922A95E1F725E0A0
S1130D40E5E0F1E0DE01169601900D922A95E1F7B7
S1130D5025E0EAE0F1E0DE011B9601900D922A9570
S1130D60E1F725E0EFE0F1E0DE01509601900D920D
S1130D702A95E1F79E8B8D8B0596988F8F8B059620
S1130D809A8F898F05969C8F8B8F05960E94680594
S1130D9060E070E0CE0145960E941D0363E280E0AE
S1130DA00E945F0488B1806288B920E84FEF5FEF4A
S1130DB064E171E0CE0145960E949D042FEF3FEF60
S1130DC048E262E8CE0145960E947B052FEF3FEF93
S1130DD048E264E6CE0145960E94030680E090E076
S1130DE06C960FB6F894DEBF0FBECDBFDF91CF91E6
S1090DF00895F894FFCF02
S1130DF62400250002240025000124002500002AE1
S1130E06002B000748656C6C6F20576F726C64008A
S9030000FC
